{
  "_format": "hh-sol-artifact-1",
  "contractName": "REX",
  "sourceName": "contracts/Rex.sol",
  "abi": [
    {
      "inputs": [],
      "stateMutability": "nonpayable",
      "type": "constructor"
    },
    {
      "inputs": [],
      "name": "ApprovalCallerNotOwnerNorApproved",
      "type": "error"
    },
    {
      "inputs": [],
      "name": "ApprovalQueryForNonexistentToken",
      "type": "error"
    },
    {
      "inputs": [],
      "name": "BalanceQueryForZeroAddress",
      "type": "error"
    },
    {
      "inputs": [],
      "name": "MintERC2309QuantityExceedsLimit",
      "type": "error"
    },
    {
      "inputs": [],
      "name": "MintToZeroAddress",
      "type": "error"
    },
    {
      "inputs": [],
      "name": "MintZeroQuantity",
      "type": "error"
    },
    {
      "inputs": [],
      "name": "OwnerQueryForNonexistentToken",
      "type": "error"
    },
    {
      "inputs": [],
      "name": "OwnershipNotInitializedForExtraData",
      "type": "error"
    },
    {
      "inputs": [],
      "name": "TransferCallerNotOwnerNorApproved",
      "type": "error"
    },
    {
      "inputs": [],
      "name": "TransferFromIncorrectOwner",
      "type": "error"
    },
    {
      "inputs": [],
      "name": "TransferToNonERC721ReceiverImplementer",
      "type": "error"
    },
    {
      "inputs": [],
      "name": "TransferToZeroAddress",
      "type": "error"
    },
    {
      "inputs": [],
      "name": "URIQueryForNonexistentToken",
      "type": "error"
    },
    {
      "anonymous": false,
      "inputs": [
        {
          "indexed": true,
          "internalType": "address",
          "name": "owner",
          "type": "address"
        },
        {
          "indexed": true,
          "internalType": "address",
          "name": "approved",
          "type": "address"
        },
        {
          "indexed": true,
          "internalType": "uint256",
          "name": "tokenId",
          "type": "uint256"
        }
      ],
      "name": "Approval",
      "type": "event"
    },
    {
      "anonymous": false,
      "inputs": [
        {
          "indexed": true,
          "internalType": "address",
          "name": "owner",
          "type": "address"
        },
        {
          "indexed": true,
          "internalType": "address",
          "name": "operator",
          "type": "address"
        },
        {
          "indexed": false,
          "internalType": "bool",
          "name": "approved",
          "type": "bool"
        }
      ],
      "name": "ApprovalForAll",
      "type": "event"
    },
    {
      "anonymous": false,
      "inputs": [
        {
          "indexed": true,
          "internalType": "uint256",
          "name": "fromTokenId",
          "type": "uint256"
        },
        {
          "indexed": false,
          "internalType": "uint256",
          "name": "toTokenId",
          "type": "uint256"
        },
        {
          "indexed": true,
          "internalType": "address",
          "name": "from",
          "type": "address"
        },
        {
          "indexed": true,
          "internalType": "address",
          "name": "to",
          "type": "address"
        }
      ],
      "name": "ConsecutiveTransfer",
      "type": "event"
    },
    {
      "anonymous": false,
      "inputs": [
        {
          "indexed": true,
          "internalType": "address",
          "name": "previousOwner",
          "type": "address"
        },
        {
          "indexed": true,
          "internalType": "address",
          "name": "newOwner",
          "type": "address"
        }
      ],
      "name": "OwnershipTransferred",
      "type": "event"
    },
    {
      "anonymous": false,
      "inputs": [
        {
          "indexed": true,
          "internalType": "address",
          "name": "from",
          "type": "address"
        },
        {
          "indexed": true,
          "internalType": "address",
          "name": "to",
          "type": "address"
        },
        {
          "indexed": true,
          "internalType": "uint256",
          "name": "tokenId",
          "type": "uint256"
        }
      ],
      "name": "Transfer",
      "type": "event"
    },
    {
      "inputs": [],
      "name": "MAX_TOKENS",
      "outputs": [
        {
          "internalType": "uint256",
          "name": "",
          "type": "uint256"
        }
      ],
      "stateMutability": "view",
      "type": "function"
    },
    {
      "inputs": [],
      "name": "MAX_WHITELIST_MINT",
      "outputs": [
        {
          "internalType": "uint256",
          "name": "",
          "type": "uint256"
        }
      ],
      "stateMutability": "view",
      "type": "function"
    },
    {
      "inputs": [],
      "name": "PRESALE_LIMIT",
      "outputs": [
        {
          "internalType": "uint256",
          "name": "",
          "type": "uint256"
        }
      ],
      "stateMutability": "view",
      "type": "function"
    },
    {
      "inputs": [],
      "name": "PRICE",
      "outputs": [
        {
          "internalType": "uint256",
          "name": "",
          "type": "uint256"
        }
      ],
      "stateMutability": "view",
      "type": "function"
    },
    {
      "inputs": [],
      "name": "WHITELIST_SALE_PRICE",
      "outputs": [
        {
          "internalType": "uint256",
          "name": "",
          "type": "uint256"
        }
      ],
      "stateMutability": "view",
      "type": "function"
    },
    {
      "inputs": [],
      "name": "_paused",
      "outputs": [
        {
          "internalType": "bool",
          "name": "",
          "type": "bool"
        }
      ],
      "stateMutability": "view",
      "type": "function"
    },
    {
      "inputs": [
        {
          "internalType": "address",
          "name": "",
          "type": "address"
        }
      ],
      "name": "addressMintedBalance",
      "outputs": [
        {
          "internalType": "uint256",
          "name": "",
          "type": "uint256"
        }
      ],
      "stateMutability": "view",
      "type": "function"
    },
    {
      "inputs": [
        {
          "internalType": "address",
          "name": "to",
          "type": "address"
        },
        {
          "internalType": "uint256",
          "name": "tokenId",
          "type": "uint256"
        }
      ],
      "name": "approve",
      "outputs": [],
      "stateMutability": "payable",
      "type": "function"
    },
    {
      "inputs": [
        {
          "internalType": "address",
          "name": "owner",
          "type": "address"
        }
      ],
      "name": "balanceOf",
      "outputs": [
        {
          "internalType": "uint256",
          "name": "",
          "type": "uint256"
        }
      ],
      "stateMutability": "view",
      "type": "function"
    },
    {
      "inputs": [
        {
          "internalType": "uint256",
          "name": "tokenId",
          "type": "uint256"
        }
      ],
      "name": "getApproved",
      "outputs": [
        {
          "internalType": "address",
          "name": "",
          "type": "address"
        }
      ],
      "stateMutability": "view",
      "type": "function"
    },
    {
      "inputs": [
        {
          "internalType": "address",
          "name": "owner",
          "type": "address"
        },
        {
          "internalType": "address",
          "name": "operator",
          "type": "address"
        }
      ],
      "name": "isApprovedForAll",
      "outputs": [
        {
          "internalType": "bool",
          "name": "",
          "type": "bool"
        }
      ],
      "stateMutability": "view",
      "type": "function"
    },
    {
      "inputs": [],
      "name": "merkleRoot",
      "outputs": [
        {
          "internalType": "bytes32",
          "name": "",
          "type": "bytes32"
        }
      ],
      "stateMutability": "view",
      "type": "function"
    },
    {
      "inputs": [
        {
          "internalType": "uint256",
          "name": "quantity",
          "type": "uint256"
        }
      ],
      "name": "mint",
      "outputs": [],
      "stateMutability": "payable",
      "type": "function"
    },
    {
      "inputs": [
        {
          "internalType": "uint256",
          "name": "_mintAmount",
          "type": "uint256"
        },
        {
          "internalType": "address",
          "name": "_receiver",
          "type": "address"
        }
      ],
      "name": "mintForAddress",
      "outputs": [],
      "stateMutability": "nonpayable",
      "type": "function"
    },
    {
      "inputs": [],
      "name": "name",
      "outputs": [
        {
          "internalType": "string",
          "name": "",
          "type": "string"
        }
      ],
      "stateMutability": "view",
      "type": "function"
    },
    {
      "inputs": [],
      "name": "notRevealedUri",
      "outputs": [
        {
          "internalType": "string",
          "name": "",
          "type": "string"
        }
      ],
      "stateMutability": "view",
      "type": "function"
    },
    {
      "inputs": [
        {
          "internalType": "address",
          "name": "owner",
          "type": "address"
        }
      ],
      "name": "numberMinted",
      "outputs": [
        {
          "internalType": "uint256",
          "name": "",
          "type": "uint256"
        }
      ],
      "stateMutability": "view",
      "type": "function"
    },
    {
      "inputs": [],
      "name": "owner",
      "outputs": [
        {
          "internalType": "address",
          "name": "",
          "type": "address"
        }
      ],
      "stateMutability": "view",
      "type": "function"
    },
    {
      "inputs": [
        {
          "internalType": "uint256",
          "name": "tokenId",
          "type": "uint256"
        }
      ],
      "name": "ownerOf",
      "outputs": [
        {
          "internalType": "address",
          "name": "",
          "type": "address"
        }
      ],
      "stateMutability": "view",
      "type": "function"
    },
    {
      "inputs": [],
      "name": "paused",
      "outputs": [
        {
          "internalType": "bool",
          "name": "",
          "type": "bool"
        }
      ],
      "stateMutability": "view",
      "type": "function"
    },
    {
      "inputs": [],
      "name": "perAddressLimit",
      "outputs": [
        {
          "internalType": "uint256",
          "name": "",
          "type": "uint256"
        }
      ],
      "stateMutability": "view",
      "type": "function"
    },
    {
      "inputs": [],
      "name": "preSaleIsActive",
      "outputs": [
        {
          "internalType": "bool",
          "name": "",
          "type": "bool"
        }
      ],
      "stateMutability": "view",
      "type": "function"
    },
    {
      "inputs": [
        {
          "internalType": "uint256",
          "name": "amount",
          "type": "uint256"
        },
        {
          "internalType": "bytes32[]",
          "name": "merkleProof",
          "type": "bytes32[]"
        }
      ],
      "name": "preSaleMint",
      "outputs": [],
      "stateMutability": "payable",
      "type": "function"
    },
    {
      "inputs": [],
      "name": "presaleEnded",
      "outputs": [
        {
          "internalType": "uint256",
          "name": "",
          "type": "uint256"
        }
      ],
      "stateMutability": "view",
      "type": "function"
    },
    {
      "inputs": [],
      "name": "presaleStarted",
      "outputs": [
        {
          "internalType": "bool",
          "name": "",
          "type": "bool"
        }
      ],
      "stateMutability": "view",
      "type": "function"
    },
    {
      "inputs": [],
      "name": "presaleTokensSold",
      "outputs": [
        {
          "internalType": "uint256",
          "name": "",
          "type": "uint256"
        }
      ],
      "stateMutability": "view",
      "type": "function"
    },
    {
      "inputs": [],
      "name": "renounceOwnership",
      "outputs": [],
      "stateMutability": "nonpayable",
      "type": "function"
    },
    {
      "inputs": [],
      "name": "reservedTokensMinted",
      "outputs": [
        {
          "internalType": "uint256",
          "name": "",
          "type": "uint256"
        }
      ],
      "stateMutability": "view",
      "type": "function"
    },
    {
      "inputs": [],
      "name": "reveal",
      "outputs": [],
      "stateMutability": "nonpayable",
      "type": "function"
    },
    {
      "inputs": [],
      "name": "revealed",
      "outputs": [
        {
          "internalType": "bool",
          "name": "",
          "type": "bool"
        }
      ],
      "stateMutability": "view",
      "type": "function"
    },
    {
      "inputs": [
        {
          "internalType": "address",
          "name": "from",
          "type": "address"
        },
        {
          "internalType": "address",
          "name": "to",
          "type": "address"
        },
        {
          "internalType": "uint256",
          "name": "tokenId",
          "type": "uint256"
        }
      ],
      "name": "safeTransferFrom",
      "outputs": [],
      "stateMutability": "payable",
      "type": "function"
    },
    {
      "inputs": [
        {
          "internalType": "address",
          "name": "from",
          "type": "address"
        },
        {
          "internalType": "address",
          "name": "to",
          "type": "address"
        },
        {
          "internalType": "uint256",
          "name": "tokenId",
          "type": "uint256"
        },
        {
          "internalType": "bytes",
          "name": "_data",
          "type": "bytes"
        }
      ],
      "name": "safeTransferFrom",
      "outputs": [],
      "stateMutability": "payable",
      "type": "function"
    },
    {
      "inputs": [],
      "name": "saleIsActive",
      "outputs": [
        {
          "internalType": "bool",
          "name": "",
          "type": "bool"
        }
      ],
      "stateMutability": "view",
      "type": "function"
    },
    {
      "inputs": [
        {
          "internalType": "address",
          "name": "operator",
          "type": "address"
        },
        {
          "internalType": "bool",
          "name": "approved",
          "type": "bool"
        }
      ],
      "name": "setApprovalForAll",
      "outputs": [],
      "stateMutability": "nonpayable",
      "type": "function"
    },
    {
      "inputs": [
        {
          "internalType": "string",
          "name": "baseURI",
          "type": "string"
        }
      ],
      "name": "setBaseURI",
      "outputs": [],
      "stateMutability": "nonpayable",
      "type": "function"
    },
    {
      "inputs": [
        {
          "internalType": "bytes32",
          "name": "_merkleRoot",
          "type": "bytes32"
        }
      ],
      "name": "setMerkleRoot",
      "outputs": [],
      "stateMutability": "nonpayable",
      "type": "function"
    },
    {
      "inputs": [
        {
          "internalType": "string",
          "name": "_notRevealedURI",
          "type": "string"
        }
      ],
      "name": "setNotRevealedURI",
      "outputs": [],
      "stateMutability": "nonpayable",
      "type": "function"
    },
    {
      "inputs": [
        {
          "internalType": "uint256",
          "name": "_newCost",
          "type": "uint256"
        }
      ],
      "name": "setPUBLIC_SALE_PRICE",
      "outputs": [],
      "stateMutability": "nonpayable",
      "type": "function"
    },
    {
      "inputs": [
        {
          "internalType": "bool",
          "name": "val",
          "type": "bool"
        }
      ],
      "name": "setPaused",
      "outputs": [],
      "stateMutability": "nonpayable",
      "type": "function"
    },
    {
      "inputs": [
        {
          "internalType": "uint256",
          "name": "newLimit",
          "type": "uint256"
        }
      ],
      "name": "setPerAddressLimit",
      "outputs": [],
      "stateMutability": "nonpayable",
      "type": "function"
    },
    {
      "inputs": [],
      "name": "startPresale",
      "outputs": [],
      "stateMutability": "nonpayable",
      "type": "function"
    },
    {
      "inputs": [
        {
          "internalType": "bytes4",
          "name": "interfaceId",
          "type": "bytes4"
        }
      ],
      "name": "supportsInterface",
      "outputs": [
        {
          "internalType": "bool",
          "name": "",
          "type": "bool"
        }
      ],
      "stateMutability": "view",
      "type": "function"
    },
    {
      "inputs": [],
      "name": "symbol",
      "outputs": [
        {
          "internalType": "string",
          "name": "",
          "type": "string"
        }
      ],
      "stateMutability": "view",
      "type": "function"
    },
    {
      "inputs": [
        {
          "internalType": "uint256",
          "name": "tokenId",
          "type": "uint256"
        }
      ],
      "name": "tokenURI",
      "outputs": [
        {
          "internalType": "string",
          "name": "",
          "type": "string"
        }
      ],
      "stateMutability": "view",
      "type": "function"
    },
    {
      "inputs": [],
      "name": "totalSupply",
      "outputs": [
        {
          "internalType": "uint256",
          "name": "",
          "type": "uint256"
        }
      ],
      "stateMutability": "view",
      "type": "function"
    },
    {
      "inputs": [
        {
          "internalType": "address",
          "name": "from",
          "type": "address"
        },
        {
          "internalType": "address",
          "name": "to",
          "type": "address"
        },
        {
          "internalType": "uint256",
          "name": "tokenId",
          "type": "uint256"
        }
      ],
      "name": "transferFrom",
      "outputs": [],
      "stateMutability": "payable",
      "type": "function"
    },
    {
      "inputs": [
        {
          "internalType": "address",
          "name": "newOwner",
          "type": "address"
        }
      ],
      "name": "transferOwnership",
      "outputs": [],
      "stateMutability": "nonpayable",
      "type": "function"
    },
    {
      "inputs": [],
      "name": "whitelist",
      "outputs": [
        {
          "internalType": "bool",
          "name": "",
          "type": "bool"
        }
      ],
      "stateMutability": "view",
      "type": "function"
    },
    {
      "inputs": [],
      "name": "withdraw",
      "outputs": [],
      "stateMutability": "nonpayable",
      "type": "function"
    }
  ],
  "bytecode": "0x60806040526101f4600a556000600b55655af3107a4000600c556512309ce54000600d55600a600e55600a600f556000601060006101000a81548160ff0219169083151502179055506000601060016101000a81548160ff0219169083151502179055506000601060026101000a81548160ff0219169083151502179055506000601060036101000a81548160ff0219169083151502179055506000601060046101000a81548160ff02191690831515021790555060006011556000801b601455348015620000cd57600080fd5b506040518060400160405280600381526020017f52455800000000000000000000000000000000000000000000000000000000008152506040518060400160405280600381526020017f726578000000000000000000000000000000000000000000000000000000000081525081600290805190602001906200015292919062000285565b5080600390805190602001906200016b92919062000285565b506200017c620001b260201b60201c565b6000819055505050620001a462000198620001b760201b60201c565b620001bf60201b60201c565b60016009819055506200039a565b600090565b600033905090565b6000600860009054906101000a900473ffffffffffffffffffffffffffffffffffffffff16905081600860006101000a81548173ffffffffffffffffffffffffffffffffffffffff021916908373ffffffffffffffffffffffffffffffffffffffff1602179055508173ffffffffffffffffffffffffffffffffffffffff168173ffffffffffffffffffffffffffffffffffffffff167f8be0079c531659141344cd1fd0a4f28419497f9722a3daafe3b4186f6b6457e060405160405180910390a35050565b828054620002939062000335565b90600052602060002090601f016020900481019282620002b7576000855562000303565b82601f10620002d257805160ff191683800117855562000303565b8280016001018555821562000303579182015b8281111562000302578251825591602001919060010190620002e5565b5b50905062000312919062000316565b5090565b5b808211156200033157600081600090555060010162000317565b5090565b600060028204905060018216806200034e57607f821691505b602082108114156200036557620003646200036b565b5b50919050565b7f4e487b7100000000000000000000000000000000000000000000000000000000600052602260045260246000fd5b613b8880620003aa6000396000f3fe6080604052600436106102ae5760003560e01c80636352211e11610175578063bc912e1a116100dc578063eb8d244411610095578063f2fde38b1161006f578063f2fde38b14610a1a578063f3cedb8a14610a43578063f3e3882114610a6c578063f47c84c514610a97576102ae565b8063eb8d24441461099d578063efbd73f4146109c8578063f2c4ce1e146109f1576102ae565b8063bc912e1a14610865578063c08dfd3c14610890578063c87b56dd146108bb578063dc33e681146108f8578063e580b2b014610935578063e985e9c514610960576102ae565b806393e59dc11161012e57806393e59dc11461079757806395d89b41146107c2578063a0712d68146107ed578063a22cb46514610809578063a475b5dd14610832578063b88d4fde14610849576102ae565b80636352211e1461068757806370a08231146106c4578063715018a6146107015780637cb64759146107185780638d859f3e146107415780638da5cb5b1461076c576102ae565b80631f0234d81161021957806342842e0e116101d257806342842e0e146105a55780634c220f6e146105c157806351830227146105dd57806355f804b3146106085780635c975abb146106315780636007eeed1461065c576102ae565b80631f0234d8146104c857806323b872dd146104f357806329f767e81461050f5780632eb4a7ab14610538578063341c3304146105635780633ccfd60b1461058e576102ae565b8063095ea7b31161026b578063095ea7b3146103c557806316c38b3c146103e157806316c61ccc1461040a57806318160ddd1461043557806318cae269146104605780631aee3f911461049d576102ae565b806301ffc9a7146102b357806304549d6f146102f057806304c98b2b1461031b57806306fdde0314610332578063081812fc1461035d578063081c8c441461039a575b600080fd5b3480156102bf57600080fd5b506102da60048036038101906102d59190612c97565b610ac2565b6040516102e791906131d5565b60405180910390f35b3480156102fc57600080fd5b50610305610b54565b60405161031291906131d5565b60405180910390f35b34801561032757600080fd5b50610330610b67565b005b34801561033e57600080fd5b50610347610ba1565b604051610354919061320b565b60405180910390f35b34801561036957600080fd5b50610384600480360381019061037f9190612d2a565b610c33565b604051610391919061316e565b60405180910390f35b3480156103a657600080fd5b506103af610cb2565b6040516103bc919061320b565b60405180910390f35b6103df60048036038101906103da9190612c09565b610d40565b005b3480156103ed57600080fd5b5061040860048036038101906104039190612c45565b610e84565b005b34801561041657600080fd5b5061041f610ea9565b60405161042c91906131d5565b60405180910390f35b34801561044157600080fd5b5061044a610ebc565b604051610457919061340d565b60405180910390f35b34801561046c57600080fd5b5061048760048036038101906104829190612a9e565b610ed3565b604051610494919061340d565b60405180910390f35b3480156104a957600080fd5b506104b2610eeb565b6040516104bf919061340d565b60405180910390f35b3480156104d457600080fd5b506104dd610ef1565b6040516104ea91906131d5565b60405180910390f35b61050d60048036038101906105089190612b03565b610f04565b005b34801561051b57600080fd5b5061053660048036038101906105319190612d2a565b611229565b005b34801561054457600080fd5b5061054d61123b565b60405161055a91906131f0565b60405180910390f35b34801561056f57600080fd5b50610578611241565b604051610585919061340d565b60405180910390f35b34801561059a57600080fd5b506105a3611247565b005b6105bf60048036038101906105ba9190612b03565b61129f565b005b6105db60048036038101906105d69190612d8f565b6112bf565b005b3480156105e957600080fd5b506105f2611651565b6040516105ff91906131d5565b60405180910390f35b34801561061457600080fd5b5061062f600480360381019061062a9190612ce9565b611664565b005b34801561063d57600080fd5b50610646611678565b60405161065391906131d5565b60405180910390f35b34801561066857600080fd5b5061067161168b565b60405161067e919061340d565b60405180910390f35b34801561069357600080fd5b506106ae60048036038101906106a99190612d2a565b611691565b6040516106bb919061316e565b60405180910390f35b3480156106d057600080fd5b506106eb60048036038101906106e69190612a9e565b6116a3565b6040516106f8919061340d565b60405180910390f35b34801561070d57600080fd5b5061071661175c565b005b34801561072457600080fd5b5061073f600480360381019061073a9190612c6e565b611770565b005b34801561074d57600080fd5b50610756611782565b604051610763919061340d565b60405180910390f35b34801561077857600080fd5b50610781611788565b60405161078e919061316e565b60405180910390f35b3480156107a357600080fd5b506107ac6117b2565b6040516107b991906131d5565b60405180910390f35b3480156107ce57600080fd5b506107d76117c5565b6040516107e4919061320b565b60405180910390f35b61080760048036038101906108029190612d2a565b611857565b005b34801561081557600080fd5b50610830600480360381019061082b9190612bcd565b611963565b005b34801561083e57600080fd5b50610847611a6e565b005b610863600480360381019061085e9190612b52565b611a93565b005b34801561087157600080fd5b5061087a611b06565b604051610887919061340d565b60405180910390f35b34801561089c57600080fd5b506108a5611b0c565b6040516108b2919061340d565b60405180910390f35b3480156108c757600080fd5b506108e260048036038101906108dd9190612d2a565b611b12565b6040516108ef919061320b565b60405180910390f35b34801561090457600080fd5b5061091f600480360381019061091a9190612a9e565b611c5f565b60405161092c919061340d565b60405180910390f35b34801561094157600080fd5b5061094a611c71565b604051610957919061340d565b60405180910390f35b34801561096c57600080fd5b5061098760048036038101906109829190612ac7565b611c77565b60405161099491906131d5565b60405180910390f35b3480156109a957600080fd5b506109b2611d0b565b6040516109bf91906131d5565b60405180910390f35b3480156109d457600080fd5b506109ef60048036038101906109ea9190612d53565b611d1e565b005b3480156109fd57600080fd5b50610a186004803603810190610a139190612ce9565b611d34565b005b348015610a2657600080fd5b50610a416004803603810190610a3c9190612a9e565b611d56565b005b348015610a4f57600080fd5b50610a6a6004803603810190610a659190612d2a565b611dda565b005b348015610a7857600080fd5b50610a81611dec565b604051610a8e919061340d565b60405180910390f35b348015610aa357600080fd5b50610aac611df2565b604051610ab9919061340d565b60405180910390f35b60006301ffc9a760e01b827bffffffffffffffffffffffffffffffffffffffffffffffffffffffff19161480610b1d57506380ac58cd60e01b827bffffffffffffffffffffffffffffffffffffffffffffffffffffffff1916145b80610b4d5750635b5e139f60e01b827bffffffffffffffffffffffffffffffffffffffffffffffffffffffff1916145b9050919050565b601560009054906101000a900460ff1681565b610b6f611df8565b6001601060016101000a81548160ff0219169083151502179055506201518042610b9991906134f2565b601781905550565b606060028054610bb090613662565b80601f0160208091040260200160405190810160405280929190818152602001828054610bdc90613662565b8015610c295780601f10610bfe57610100808354040283529160200191610c29565b820191906000526020600020905b815481529060010190602001808311610c0c57829003601f168201915b5050505050905090565b6000610c3e82611e76565b610c74576040517fcf4700e400000000000000000000000000000000000000000000000000000000815260040160405180910390fd5b6006600083815260200190815260200160002060000160009054906101000a900473ffffffffffffffffffffffffffffffffffffffff169050919050565b60138054610cbf90613662565b80601f0160208091040260200160405190810160405280929190818152602001828054610ceb90613662565b8015610d385780601f10610d0d57610100808354040283529160200191610d38565b820191906000526020600020905b815481529060010190602001808311610d1b57829003601f168201915b505050505081565b6000610d4b82611691565b90508073ffffffffffffffffffffffffffffffffffffffff16610d6c611ed5565b73ffffffffffffffffffffffffffffffffffffffff1614610dcf57610d9881610d93611ed5565b611c77565b610dce576040517fcfb3b94200000000000000000000000000000000000000000000000000000000815260040160405180910390fd5b5b826006600084815260200190815260200160002060000160006101000a81548173ffffffffffffffffffffffffffffffffffffffff021916908373ffffffffffffffffffffffffffffffffffffffff160217905550818373ffffffffffffffffffffffffffffffffffffffff168273ffffffffffffffffffffffffffffffffffffffff167f8c5be1e5ebec7d5bd14f71427d1e84f3dd0314c0f7b2291e5b200ac8c7c3b92560405160405180910390a4505050565b610e8c611df8565b80601860006101000a81548160ff02191690831515021790555050565b601860009054906101000a900460ff1681565b6000610ec6611edd565b6001546000540303905090565b60196020528060005260406000206000915090505481565b600a5481565b601060019054906101000a900460ff1681565b6000610f0f82611ee2565b90508373ffffffffffffffffffffffffffffffffffffffff168173ffffffffffffffffffffffffffffffffffffffff1614610f76576040517fa114810000000000000000000000000000000000000000000000000000000000815260040160405180910390fd5b600080610f8284611fb0565b91509150610f988187610f93611ed5565b611fd7565b610fe457610fad86610fa8611ed5565b611c77565b610fe3576040517f59c896be00000000000000000000000000000000000000000000000000000000815260040160405180910390fd5b5b600073ffffffffffffffffffffffffffffffffffffffff168573ffffffffffffffffffffffffffffffffffffffff16141561104b576040517fea553b3400000000000000000000000000000000000000000000000000000000815260040160405180910390fd5b611058868686600161201b565b801561106357600082555b600560008773ffffffffffffffffffffffffffffffffffffffff1673ffffffffffffffffffffffffffffffffffffffff168152602001908152602001600020600081546001900391905081905550600560008673ffffffffffffffffffffffffffffffffffffffff1673ffffffffffffffffffffffffffffffffffffffff16815260200190815260200160002060008154600101919050819055506111318561110d888887612021565b7c020000000000000000000000000000000000000000000000000000000017612049565b600460008681526020019081526020016000208190555060007c0200000000000000000000000000000000000000000000000000000000841614156111b95760006001850190506000600460008381526020019081526020016000205414156111b75760005481146111b6578360046000838152602001908152602001600020819055505b5b505b838573ffffffffffffffffffffffffffffffffffffffff168773ffffffffffffffffffffffffffffffffffffffff167fddf252ad1be2c89b69c2b068fc378daa952ba7f163c4a11628f55a4df523b3ef60405160405180910390a46112218686866001612074565b505050505050565b611231611df8565b80600f8190555050565b60145481565b600b5481565b61124f611df8565b611257611788565b73ffffffffffffffffffffffffffffffffffffffff166108fc479081150290604051600060405180830381858888f1935050505015801561129c573d6000803e3d6000fd5b50565b6112ba83838360405180602001604052806000815250611a93565b505050565b6112c761207a565b601060019054906101000a900460ff1680156112e4575060175442105b611323576040517f08c379a000000000000000000000000000000000000000000000000000000000815260040161131a9061326d565b60405180910390fd5b601060019054906101000a900460ff16611372576040517f08c379a00000000000000000000000000000000000000000000000000000000081526004016113699061336d565b60405180910390fd5b6113e6828280806020026020016040519081016040528093929190818152602001838360200280828437600081840152601f19601f82011690508083019250505050505050601454336040516020016113cb919061310d565b604051602081830303815290604052805190602001206120ca565b611425576040517f08c379a000000000000000000000000000000000000000000000000000000000815260040161141c9061322d565b60405180910390fd5b600e54836114396114346120e1565b6120e9565b61144391906134f2565b1115611484576040517f08c379a000000000000000000000000000000000000000000000000000000000815260040161147b906133ad565b60405180910390fd5b601060019054906101000a900460ff16806114ab5750601060009054906101000a900460ff165b6114ea576040517f08c379a00000000000000000000000000000000000000000000000000000000081526004016114e1906132ad565b60405180910390fd5b601060019054906101000a900460ff1615806115155750600a5483600b5461151291906134f2565b11155b611554576040517f08c379a000000000000000000000000000000000000000000000000000000000815260040161154b906132ed565b60405180910390fd5b82600d546115629190613548565b3410156115a4576040517f08c379a000000000000000000000000000000000000000000000000000000000815260040161159b9061334d565b60405180910390fd5b600f5483601960003373ffffffffffffffffffffffffffffffffffffffff1673ffffffffffffffffffffffffffffffffffffffff168152602001908152602001600020546115f291906134f2565b1115611633576040517f08c379a000000000000000000000000000000000000000000000000000000000815260040161162a906133ed565b60405180910390fd5b61164461163e6120e1565b84612140565b61164c61215e565b505050565b601060039054906101000a900460ff1681565b61166c611df8565b61167581612168565b50565b601060049054906101000a900460ff1681565b600f5481565b600061169c82611ee2565b9050919050565b60008073ffffffffffffffffffffffffffffffffffffffff168273ffffffffffffffffffffffffffffffffffffffff16141561170b576040517f8f4eb60400000000000000000000000000000000000000000000000000000000815260040160405180910390fd5b67ffffffffffffffff600560008473ffffffffffffffffffffffffffffffffffffffff1673ffffffffffffffffffffffffffffffffffffffff16815260200190815260200160002054169050919050565b611764611df8565b61176e6000612182565b565b611778611df8565b8060148190555050565b600c5481565b6000600860009054906101000a900473ffffffffffffffffffffffffffffffffffffffff16905090565b601060029054906101000a900460ff1681565b6060600380546117d490613662565b80601f016020809104026020016040519081016040528092919081815260200182805461180090613662565b801561184d5780601f106118225761010080835404028352916020019161184d565b820191906000526020600020905b81548152906001019060200180831161183057829003601f168201915b5050505050905090565b600f54611863336120e9565b8261186e91906134f2565b11156118af576040517f08c379a00000000000000000000000000000000000000000000000000000000081526004016118a69061328d565b60405180910390fd5b6103e8816118bb610ebc565b6118c591906134f2565b1115611906576040517f08c379a00000000000000000000000000000000000000000000000000000000081526004016118fd906132cd565b60405180910390fd5b80600c546119149190613548565b341015611956576040517f08c379a000000000000000000000000000000000000000000000000000000000815260040161194d9061338d565b60405180910390fd5b6119603382612140565b50565b8060076000611970611ed5565b73ffffffffffffffffffffffffffffffffffffffff1673ffffffffffffffffffffffffffffffffffffffff16815260200190815260200160002060008473ffffffffffffffffffffffffffffffffffffffff1673ffffffffffffffffffffffffffffffffffffffff16815260200190815260200160002060006101000a81548160ff0219169083151502179055508173ffffffffffffffffffffffffffffffffffffffff16611a1d611ed5565b73ffffffffffffffffffffffffffffffffffffffff167f17307eab39ab6107e8899845ad3d59bd9653f200f220920489ca2b5937696c3183604051611a6291906131d5565b60405180910390a35050565b611a76611df8565b6001601060036101000a81548160ff021916908315150217905550565b611a9e848484610f04565b60008373ffffffffffffffffffffffffffffffffffffffff163b14611b0057611ac984848484612248565b611aff576040517fd1a57ed600000000000000000000000000000000000000000000000000000000815260040160405180910390fd5b5b50505050565b600d5481565b600e5481565b6060611b1d82611e76565b611b5c576040517f08c379a0000000000000000000000000000000000000000000000000000000008152600401611b539061332d565b60405180910390fd5b60001515601060039054906101000a900460ff1615151415611c0a5760138054611b8590613662565b80601f0160208091040260200160405190810160405280929190818152602001828054611bb190613662565b8015611bfe5780601f10611bd357610100808354040283529160200191611bfe565b820191906000526020600020905b815481529060010190602001808311611be157829003601f168201915b50505050509050611c5a565b6000611c15836123a8565b90506000815111611c355760405180602001604052806000815250611c56565b80604051602001611c46919061314c565b6040516020818303038152906040525b9150505b919050565b6000611c6a826120e9565b9050919050565b60175481565b6000600760008473ffffffffffffffffffffffffffffffffffffffff1673ffffffffffffffffffffffffffffffffffffffff16815260200190815260200160002060008373ffffffffffffffffffffffffffffffffffffffff1673ffffffffffffffffffffffffffffffffffffffff16815260200190815260200160002060009054906101000a900460ff16905092915050565b601060009054906101000a900460ff1681565b611d26611df8565b611d308183612140565b5050565b611d3c611df8565b8060139080519060200190611d52929190612863565b5050565b611d5e611df8565b600073ffffffffffffffffffffffffffffffffffffffff168173ffffffffffffffffffffffffffffffffffffffff161415611dce576040517f08c379a0000000000000000000000000000000000000000000000000000000008152600401611dc59061324d565b60405180910390fd5b611dd781612182565b50565b611de2611df8565b80600c8190555050565b60115481565b6103e881565b611e006120e1565b73ffffffffffffffffffffffffffffffffffffffff16611e1e611788565b73ffffffffffffffffffffffffffffffffffffffff1614611e74576040517f08c379a0000000000000000000000000000000000000000000000000000000008152600401611e6b9061330d565b60405180910390fd5b565b600081611e81611edd565b11158015611e90575060005482105b8015611ece575060007c0100000000000000000000000000000000000000000000000000000000600460008581526020019081526020016000205416145b9050919050565b600033905090565b600090565b60008082905080611ef1611edd565b11611f7957600054811015611f785760006004600083815260200190815260200160002054905060007c010000000000000000000000000000000000000000000000000000000082161415611f76575b6000811415611f6c576004600083600190039350838152602001908152602001600020549050611f41565b8092505050611fab565b505b5b6040517fdf2d9b4200000000000000000000000000000000000000000000000000000000815260040160405180910390fd5b919050565b60008060006006600085815260200190815260200160002090508092508254915050915091565b600073ffffffffffffffffffffffffffffffffffffffff8316925073ffffffffffffffffffffffffffffffffffffffff821691508382148383141790509392505050565b50505050565b60008060e883901c905060e8612038868684612447565b62ffffff16901b9150509392505050565b600073ffffffffffffffffffffffffffffffffffffffff83169250814260a01b178317905092915050565b50505050565b600260095414156120c0576040517f08c379a00000000000000000000000000000000000000000000000000000000081526004016120b7906133cd565b60405180910390fd5b6002600981905550565b6000826120d78584612450565b1490509392505050565b600033905090565b600067ffffffffffffffff6040600560008573ffffffffffffffffffffffffffffffffffffffff1673ffffffffffffffffffffffffffffffffffffffff16815260200190815260200160002054901c169050919050565b61215a8282604051806020016040528060008152506124cc565b5050565b6001600981905550565b806012908051906020019061217e929190612863565b5050565b6000600860009054906101000a900473ffffffffffffffffffffffffffffffffffffffff16905081600860006101000a81548173ffffffffffffffffffffffffffffffffffffffff021916908373ffffffffffffffffffffffffffffffffffffffff1602179055508173ffffffffffffffffffffffffffffffffffffffff168173ffffffffffffffffffffffffffffffffffffffff167f8be0079c531659141344cd1fd0a4f28419497f9722a3daafe3b4186f6b6457e060405160405180910390a35050565b60008373ffffffffffffffffffffffffffffffffffffffff1663150b7a0261226e611ed5565b8786866040518563ffffffff1660e01b81526004016122909493929190613189565b602060405180830381600087803b1580156122aa57600080fd5b505af19250505080156122db57506040513d601f19601f820116820180604052508101906122d89190612cc0565b60015b612355573d806000811461230b576040519150601f19603f3d011682016040523d82523d6000602084013e612310565b606091505b5060008151141561234d576040517fd1a57ed600000000000000000000000000000000000000000000000000000000815260040160405180910390fd5b805181602001fd5b63150b7a0260e01b7bffffffffffffffffffffffffffffffffffffffffffffffffffffffff1916817bffffffffffffffffffffffffffffffffffffffffffffffffffffffff191614915050949350505050565b60606123b382611e76565b6123e9576040517fa14c4b5000000000000000000000000000000000000000000000000000000000815260040160405180910390fd5b60006123f3612569565b9050600081511415612414576040518060200160405280600081525061243f565b8061241e846125fb565b60405160200161242f929190613128565b6040516020818303038152906040525b915050919050565b60009392505050565b60008082905060005b84518110156124c1576124ac8286838151811061249f577f4e487b7100000000000000000000000000000000000000000000000000000000600052603260045260246000fd5b6020026020010151612654565b915080806124b9906136c5565b915050612459565b508091505092915050565b6124d6838361267f565b60008373ffffffffffffffffffffffffffffffffffffffff163b1461256457600080549050600083820390505b6125166000868380600101945086612248565b61254c576040517fd1a57ed600000000000000000000000000000000000000000000000000000000815260040160405180910390fd5b81811061250357816000541461256157600080fd5b50505b505050565b60606012805461257890613662565b80601f01602080910402602001604051908101604052809291908181526020018280546125a490613662565b80156125f15780601f106125c6576101008083540402835291602001916125f1565b820191906000526020600020905b8154815290600101906020018083116125d457829003601f168201915b5050505050905090565b606060a060405101806040526020810391506000825281835b60011561263f57600184039350600a81066030018453600a810490508061263a5761263f565b612614565b50828103602084039350808452505050919050565b600081831061266c57612667828461283c565b612677565b612676838361283c565b5b905092915050565b60008054905060008214156126c0576040517fb562e8dd00000000000000000000000000000000000000000000000000000000815260040160405180910390fd5b6126cd600084838561201b565b600160406001901b178202600560008573ffffffffffffffffffffffffffffffffffffffff1673ffffffffffffffffffffffffffffffffffffffff16815260200190815260200160002060008282540192505081905550612744836127356000866000612021565b61273e85612853565b17612049565b6004600083815260200190815260200160002081905550600080838301905073ffffffffffffffffffffffffffffffffffffffff85169150828260007fddf252ad1be2c89b69c2b068fc378daa952ba7f163c4a11628f55a4df523b3ef600080a4600183015b8181146127e557808360007fddf252ad1be2c89b69c2b068fc378daa952ba7f163c4a11628f55a4df523b3ef600080a46001810190506127aa565b506000821415612821576040517f2e07630000000000000000000000000000000000000000000000000000000000815260040160405180910390fd5b8060008190555050506128376000848385612074565b505050565b600082600052816020526040600020905092915050565b60006001821460e11b9050919050565b82805461286f90613662565b90600052602060002090601f01602090048101928261289157600085556128d8565b82601f106128aa57805160ff19168380011785556128d8565b828001600101855582156128d8579182015b828111156128d75782518255916020019190600101906128bc565b5b5090506128e591906128e9565b5090565b5b808211156129025760008160009055506001016128ea565b5090565b60006129196129148461344d565b613428565b90508281526020810184848401111561293157600080fd5b61293c848285613620565b509392505050565b60006129576129528461347e565b613428565b90508281526020810184848401111561296f57600080fd5b61297a848285613620565b509392505050565b60008135905061299181613adf565b92915050565b60008083601f8401126129a957600080fd5b8235905067ffffffffffffffff8111156129c257600080fd5b6020830191508360208202830111156129da57600080fd5b9250929050565b6000813590506129f081613af6565b92915050565b600081359050612a0581613b0d565b92915050565b600081359050612a1a81613b24565b92915050565b600081519050612a2f81613b24565b92915050565b600082601f830112612a4657600080fd5b8135612a56848260208601612906565b91505092915050565b600082601f830112612a7057600080fd5b8135612a80848260208601612944565b91505092915050565b600081359050612a9881613b3b565b92915050565b600060208284031215612ab057600080fd5b6000612abe84828501612982565b91505092915050565b60008060408385031215612ada57600080fd5b6000612ae885828601612982565b9250506020612af985828601612982565b9150509250929050565b600080600060608486031215612b1857600080fd5b6000612b2686828701612982565b9350506020612b3786828701612982565b9250506040612b4886828701612a89565b9150509250925092565b60008060008060808587031215612b6857600080fd5b6000612b7687828801612982565b9450506020612b8787828801612982565b9350506040612b9887828801612a89565b925050606085013567ffffffffffffffff811115612bb557600080fd5b612bc187828801612a35565b91505092959194509250565b60008060408385031215612be057600080fd5b6000612bee85828601612982565b9250506020612bff858286016129e1565b9150509250929050565b60008060408385031215612c1c57600080fd5b6000612c2a85828601612982565b9250506020612c3b85828601612a89565b9150509250929050565b600060208284031215612c5757600080fd5b6000612c65848285016129e1565b91505092915050565b600060208284031215612c8057600080fd5b6000612c8e848285016129f6565b91505092915050565b600060208284031215612ca957600080fd5b6000612cb784828501612a0b565b91505092915050565b600060208284031215612cd257600080fd5b6000612ce084828501612a20565b91505092915050565b600060208284031215612cfb57600080fd5b600082013567ffffffffffffffff811115612d1557600080fd5b612d2184828501612a5f565b91505092915050565b600060208284031215612d3c57600080fd5b6000612d4a84828501612a89565b91505092915050565b60008060408385031215612d6657600080fd5b6000612d7485828601612a89565b9250506020612d8585828601612982565b9150509250929050565b600080600060408486031215612da457600080fd5b6000612db286828701612a89565b935050602084013567ffffffffffffffff811115612dcf57600080fd5b612ddb86828701612997565b92509250509250925092565b612df0816135a2565b82525050565b612e07612e02826135a2565b61370e565b82525050565b612e16816135b4565b82525050565b612e25816135c0565b82525050565b6000612e36826134af565b612e4081856134c5565b9350612e5081856020860161362f565b612e59816137bf565b840191505092915050565b6000612e6f826134ba565b612e7981856134d6565b9350612e8981856020860161362f565b612e92816137bf565b840191505092915050565b6000612ea8826134ba565b612eb281856134e7565b9350612ec281856020860161362f565b80840191505092915050565b6000612edb601d836134d6565b9150612ee6826137dd565b602082019050919050565b6000612efe6026836134d6565b9150612f0982613806565b604082019050919050565b6000612f216016836134d6565b9150612f2c82613855565b602082019050919050565b6000612f446012836134d6565b9150612f4f8261387e565b602082019050919050565b6000612f67601b836134d6565b9150612f72826138a7565b602082019050919050565b6000612f8a6016836134d6565b9150612f95826138d0565b602082019050919050565b6000612fad6020836134d6565b9150612fb8826138f9565b602082019050919050565b6000612fd06005836134e7565b9150612fdb82613922565b600582019050919050565b6000612ff36020836134d6565b9150612ffe8261394b565b602082019050919050565b6000613016602f836134d6565b915061302182613974565b604082019050919050565b6000613039601e836134d6565b9150613044826139c3565b602082019050919050565b600061305c6022836134d6565b9150613067826139ec565b604082019050919050565b600061307f6015836134d6565b915061308a82613a3b565b602082019050919050565b60006130a2601b836134d6565b91506130ad82613a64565b602082019050919050565b60006130c5601f836134d6565b91506130d082613a8d565b602082019050919050565b60006130e86017836134d6565b91506130f382613ab6565b602082019050919050565b61310781613616565b82525050565b60006131198284612df6565b60148201915081905092915050565b60006131348285612e9d565b91506131408284612e9d565b91508190509392505050565b60006131588284612e9d565b915061316382612fc3565b915081905092915050565b60006020820190506131836000830184612de7565b92915050565b600060808201905061319e6000830187612de7565b6131ab6020830186612de7565b6131b860408301856130fe565b81810360608301526131ca8184612e2b565b905095945050505050565b60006020820190506131ea6000830184612e0d565b92915050565b60006020820190506132056000830184612e1c565b92915050565b600060208201905081810360008301526132258184612e64565b905092915050565b6000602082019050818103600083015261324681612ece565b9050919050565b6000602082019050818103600083015261326681612ef1565b9050919050565b6000602082019050818103600083015261328681612f14565b9050919050565b600060208201905081810360008301526132a681612f37565b9050919050565b600060208201905081810360008301526132c681612f5a565b9050919050565b600060208201905081810360008301526132e681612f7d565b9050919050565b6000602082019050818103600083015261330681612fa0565b9050919050565b6000602082019050818103600083015261332681612fe6565b9050919050565b6000602082019050818103600083015261334681613009565b9050919050565b600060208201905081810360008301526133668161302c565b9050919050565b600060208201905081810360008301526133868161304f565b9050919050565b600060208201905081810360008301526133a681613072565b9050919050565b600060208201905081810360008301526133c681613095565b9050919050565b600060208201905081810360008301526133e6816130b8565b9050919050565b60006020820190508181036000830152613406816130db565b9050919050565b600060208201905061342260008301846130fe565b92915050565b6000613432613443565b905061343e8282613694565b919050565b6000604051905090565b600067ffffffffffffffff82111561346857613467613790565b5b613471826137bf565b9050602081019050919050565b600067ffffffffffffffff82111561349957613498613790565b5b6134a2826137bf565b9050602081019050919050565b600081519050919050565b600081519050919050565b600082825260208201905092915050565b600082825260208201905092915050565b600081905092915050565b60006134fd82613616565b915061350883613616565b9250827fffffffffffffffffffffffffffffffffffffffffffffffffffffffffffffffff0382111561353d5761353c613732565b5b828201905092915050565b600061355382613616565b915061355e83613616565b9250817fffffffffffffffffffffffffffffffffffffffffffffffffffffffffffffffff048311821515161561359757613596613732565b5b828202905092915050565b60006135ad826135f6565b9050919050565b60008115159050919050565b6000819050919050565b60007fffffffff0000000000000000000000000000000000000000000000000000000082169050919050565b600073ffffffffffffffffffffffffffffffffffffffff82169050919050565b6000819050919050565b82818337600083830152505050565b60005b8381101561364d578082015181840152602081019050613632565b8381111561365c576000848401525b50505050565b6000600282049050600182168061367a57607f821691505b6020821081141561368e5761368d613761565b5b50919050565b61369d826137bf565b810181811067ffffffffffffffff821117156136bc576136bb613790565b5b80604052505050565b60006136d082613616565b91507fffffffffffffffffffffffffffffffffffffffffffffffffffffffffffffffff82141561370357613702613732565b5b600182019050919050565b600061371982613720565b9050919050565b600061372b826137d0565b9050919050565b7f4e487b7100000000000000000000000000000000000000000000000000000000600052601160045260246000fd5b7f4e487b7100000000000000000000000000000000000000000000000000000000600052602260045260246000fd5b7f4e487b7100000000000000000000000000000000000000000000000000000000600052604160045260246000fd5b6000601f19601f8301169050919050565b60008160601b9050919050565b7f20596f7520617265206e6f7420696e207468652077686974656c697374000000600082015250565b7f4f776e61626c653a206e6577206f776e657220697320746865207a65726f206160008201527f6464726573730000000000000000000000000000000000000000000000000000602082015250565b7f50726573616c65206973206e6f742072756e6e696e6700000000000000000000600082015250565b7f457863656564656420746865206c696d69740000000000000000000000000000600082015250565b7f53616c65206d7573742062652061637469766520746f206d696e740000000000600082015250565b7f4e6f7420656e6f75676820746f6b656e73206c65667400000000000000000000600082015250565b7f507572636861736520776f756c6420657863656564206d617820737570706c79600082015250565b7f2e6a736f6e000000000000000000000000000000000000000000000000000000600082015250565b7f4f776e61626c653a2063616c6c6572206973206e6f7420746865206f776e6572600082015250565b7f4552433732314d657461646174613a2055524920717565727920666f72206e6f60008201527f6e6578697374656e7420746f6b656e0000000000000000000000000000000000602082015250565b7f4e6f7420656e6f7567682045544820666f72207472616e73616374696f6e0000600082015250565b7f5468652077686974656c6973742073616c65206973206e6f7420656e61626c6560008201527f6421000000000000000000000000000000000000000000000000000000000000602082015250565b7f4e6f7420656e6f7567682065746865722073656e740000000000000000000000600082015250565b7f4d6178204e4654205065722057616c6c65742065786365656465640000000000600082015250565b7f5265656e7472616e637947756172643a207265656e7472616e742063616c6c00600082015250565b7f4d6178204e465420706572207478206578636565646564000000000000000000600082015250565b613ae8816135a2565b8114613af357600080fd5b50565b613aff816135b4565b8114613b0a57600080fd5b50565b613b16816135c0565b8114613b2157600080fd5b50565b613b2d816135ca565b8114613b3857600080fd5b50565b613b4481613616565b8114613b4f57600080fd5b5056fea26469706673582212201abd5b2d1c05a2df90a4a62665cb64f2568ac4a39f34ae175d01d6143790855064736f6c63430008040033",
  "linkReferences": {},
  "deployedLinkReferences": {}
}